:100000000C942A000C943F000C943F000C943F0089
:100010000C943F000C943F000C943F000C943F0064
:100020000C943F000C943F000C943F000C943F0054
:100030000C943F000C943F000C943F000C943F0044
:100040000C943F000C943F000C943F000C943F0034
:100050000C943F0011241FBECFE5D8E0DEBFCDBF1A
:1000600010E0A0E6B0E0ECE2F8E102C005900D92ED
:10007000AC36B107D9F70E942F0A0C94140C0C94DB
:100080000000CF93DF93CDB7DEB788E390E028E39D
:1000900030E0F90120812F7BFC01208388E30E945E
:1000A0005D008EE00E945D0081E00E945D0086E0C0
:1000B0000E945D00DF91CF910895CF93DF93CDB77C
:1000C000DEB7AF970FB6F894DEBF0FBECDBF8FA7D8
:1000D0008BE390E02FA5FC01208388E390E028E3E8
:1000E00030E0F90120812F77FC01208388E390E044
:1000F00028E330E0F90120812062FC01208380E0C8
:1001000090E0A0E2B1E489839A83AB83BC832BEABD
:100110003AEA4AEA5EE369817A818B819C810E9496
:100120009E0BDC01CB018D839E83AF83B88720E0DB
:1001300030E040E85EE369817A818B819C810E9496
:100140009E0BDC01CB0189879A87AB87BC8720E0B7
:1001500030E040E85FE36D817E818F8198850E9469
:100160007E0A88231CF481E08D87B2C020E03FEF37
:100170004FE757E469857A858B859C850E94990BAA
:1001800018160CF07BC020E030E04AE754E46981A7
:100190007A818B819C810E94830ADC01CB018E874E
:1001A0009F87A88BB98B20E030E04AE753E46E8547
:1001B0007F85888999890E949E0BDC01CB018A8BFF
:1001C0009B8BAC8BBD8B20E030E040E85FE36A891D
:1001D0007B898C899D890E947E0A88232CF481E08A
:1001E00090E09F8B8E8B3FC020E03FEF4FE757E4BE
:1001F0006A897B898C899D890E94990B18164CF518
:1002000020E030E040E251E46E857F85888999895D
:100210000E949E0BDC01CB01BC01CD010E94F50ABE
:10022000DC01CB019F8B8E8B0FC089E190E0998F11
:10023000888F888D998D0197F1F7998F888F8E8996
:100240009F8901979F8B8E8B8E899F89892B69F758
:100250003FC06A897B898C899D890E94F50ADC01EF
:10026000CB019F8B8E8B8E899F899B8F8A8F8A8DE6
:100270009B8D0197F1F79B8F8A8F2AC020E030E099
:100280004FE753E46D817E818F8198850E94990BA1
:100290001816ACF469857A858B859C850E94F50AD1
:1002A000DC01CB019D8F8C8F8C8D9D8D9F8F8E8FD0
:1002B0008E8D9F8D0197F1F79F8F8E8F0FC06D816F
:1002C0007E818F8198850E94F50ADC01CB018D87A4
:1002D0008D8588A388A18A95F1F788A388E390E0AB
:1002E00028E330E0F90120812F7DFC01208380E0AC
:1002F00090E0A0E0B0E489A39AA3ABA3BCA320E064
:1003000030E04AE753E469A17AA18BA19CA10E9445
:100310009E0BDC01CB018DA39EA3AFA3B8A720E069
:1003200030E040E85FE36DA17EA18FA198A50E9417
:100330007E0A88232CF481E090E09AA789A73FC029
:1003400020E03FEF4FE757E46DA17EA18FA198A574
:100350000E94990B18164CF520E030E040E251E481
:1003600069A17AA18BA19CA10E949E0BDC01CB010B
:10037000BC01CD010E94F50ADC01CB019AA789A737
:100380000FC089E190E09CA78BA78BA59CA5019746
:10039000F1F79CA78BA789A59AA501979AA789A78A
:1003A00089A59AA5892B69F714C06DA17EA18FA19B
:1003B00098A50E94F50ADC01CB019AA789A789A517
:1003C0009AA59EA78DA78DA59EA50197F1F79EA73B
:1003D0008DA7AF960FB6F894DEBF0FBECDBFDF91ED
:1003E000CF910895CF93DF93CDB7DEB7AF970FB618
:1003F000F894DEBF0FBECDBF8FA78BE390E02FA593
:10040000FC01208388E390E028E330E0F9012081BB
:100410002068FC01208388E390E028E330E0F901C4
:1004200020812062FC01208380E090E0A0E2B1E422
:1004300089839A83AB83BC832BEA3AEA4AEA5EE378
:1004400069817A818B819C810E949E0BDC01CB01AA
:100450008D839E83AF83B88720E030E040E85EE381
:1004600069817A818B819C810E949E0BDC01CB018A
:1004700089879A87AB87BC8720E030E040E85FE35C
:100480006D817E818F8198850E947E0A88231CF46D
:1004900081E08D87B2C020E03FEF4FE757E46985E8
:1004A0007A858B859C850E94990B18160CF07BC071
:1004B00020E030E04AE754E469817A818B819C81B5
:1004C0000E94830ADC01CB018E879F87A88BB98BA2
:1004D00020E030E04AE753E46E857F85888999897A
:1004E0000E949E0BDC01CB018A8B9B8BAC8BBD8B5E
:1004F00020E030E040E85FE36A897B898C899D8950
:100500000E947E0A88232CF481E090E09F8B8E8BE2
:100510003FC020E03FEF4FE757E46A897B898C8931
:100520009D890E94990B18164CF520E030E040E2BE
:1005300051E46E857F85888999890E949E0BDC0134
:10054000CB01BC01CD010E94F50ADC01CB019F8BE0
:100550008E8B0FC089E190E0998F888F888D998D5F
:100560000197F1F7998F888F8E899F8901979F8BCB
:100570008E8B8E899F89892B69F73FC06A897B8919
:100580008C899D890E94F50ADC01CB019F8B8E8BA3
:100590008E899F899B8F8A8F8A8D9B8D0197F1F71A
:1005A0009B8F8A8F2AC020E030E04FE753E46D81B3
:1005B0007E818F8198850E94990B1816ACF469850D
:1005C0007A858B859C850E94F50ADC01CB019D8F85
:1005D0008C8F8C8D9D8D9F8F8E8F8E8D9F8D019793
:1005E000F1F79F8F8E8F0FC06D817E818F819885EF
:1005F0000E94F50ADC01CB018D878D8588A388A137
:100600008A95F1F788A388E390E028E330E0F901C8
:1006100020812F7DFC01208380E090E0A0E0B0E409
:1006200089A39AA3ABA3BCA320E030E04AE753E43C
:1006300069A17AA18BA19CA10E949E0BDC01CB0138
:100640008DA39EA3AFA3B8A720E030E040E85FE30E
:100650006DA17EA18FA198A50E947E0A88232CF40B
:1006600081E090E09AA789A73FC020E03FEF4FE7E5
:1006700057E46DA17EA18FA198A50E94990B181631
:100680004CF520E030E040E251E469A17AA18BA171
:100690009CA10E949E0BDC01CB01BC01CD010E94FC
:1006A000F50ADC01CB019AA789A70FC089E190E088
:1006B0009CA78BA78BA59CA50197F1F79CA78BA75F
:1006C00089A59AA501979AA789A789A59AA5892B93
:1006D00069F714C06DA17EA18FA198A50E94F50AAB
:1006E000DC01CB019AA789A789A59AA59EA78DA70A
:1006F0008DA59EA50197F1F79EA78DA7AF960FB682
:10070000F894DEBF0FBECDBFDF91CF910895CF9398
:10071000DF9300D000D0CDB7DEB79C838B831A82E5
:10072000198210C089819A819C012F5F3F4F3A83C3
:1007300029839C018B819C81820F931FFC01808106
:100740000E94F20189819A812B813C81820F931F43
:10075000FC018081882331F70F900F900F900F904C
:10076000DF91CF910895CF93DF93CDB7DEB76F9729
:100770000FB6F894DEBF0FBECDBF9F8F8E8F8E8DCC
:100780009F8D0E940B0C898378C080E090E0AAEFD7
:10079000B3E48A839B83AC83BD8320E030E04AE7E7
:1007A00053E46A817B818C819D810E949E0BDC01D8
:1007B000CB018E839F83A887B98720E030E040E893
:1007C0005FE36E817F81888599850E947E0A8823F8
:1007D0002CF481E090E09B878A873FC020E03FEFC8
:1007E0004FE757E46E817F81888599850E94990B38
:1007F00018164CF520E030E040E251E46A817B813C
:100800008C819D810E949E0BDC01CB01BC01CD013E
:100810000E94F50ADC01CB019B878A870FC089E122
:1008200090E09D878C878C859D850197F1F79D874A
:100830008C878A859B8501979B878A878A859B857C
:10084000892B69F714C06E817F81888599850E9404
:10085000F50ADC01CB019B878A878A859B859F8768
:100860008E878E859F850197F1F79F878E8788E118
:100870000E945D008981815089838981882309F0E4
:1008800084CF8E8D9F8D0E940B0C982F88E1891B41
:10089000898306C088E10E945D0089818150898337
:1008A00089818823B9F78E8D9F8D0E940B0C805F04
:1008B000898378C080E090E0AAEFB3E4888B998BBD
:1008C000AA8BBB8B20E030E04AE753E46889798942
:1008D0008A899B890E949E0BDC01CB018C8B9D8BAE
:1008E000AE8BBF8B20E030E040E85FE36C897D8910
:1008F0008E899F890E947E0A88232CF481E090E0F3
:10090000998F888F3FC020E03FEF4FE757E46C8915
:100910007D898E899F890E94990B18164CF520E0DD
:1009200030E040E251E4688979898A899B890E9494
:100930009E0BDC01CB01BC01CD010E94F50ADC015C
:10094000CB01998F888F0FC089E190E09B8F8A8FB0
:100950008A8D9B8D0197F1F79B8F8A8F888D998D5A
:100960000197998F888F888D998D892B69F714C08D
:100970006C897D898E899F890E94F50ADC01CB01F3
:10098000998F888F888D998D9D8F8C8F8C8D9D8D63
:100990000197F1F79D8F8C8F88E10E945D0089811E
:1009A000815089838981882309F084CF6ACFCF93CE
:1009B000DF93CDB7DEB780E80E945D00DF91CF9175
:1009C0000895CF93DF93CDB7DEB780EC0E945D0032
:1009D000DF91CF910895CF93DF931F92CDB7DEB70C
:1009E00089830E9441008981882319F00E94D704DD
:1009F00002C00E94E10480E690E00E9487030F900D
:100A0000DF91CF910895CF93DF9300D0CDB7DEB7BC
:100A10009A83898380E490E029813A81232F3327C8
:100A2000FC01208389E290E02981FC0120838BE294
:100A300090E022E0FC0120838AE290E028E1FC01C2
:100A4000208380E490E026E8FC0120830F900F9043
:100A5000DF91CF910895CF93DF93CDB7DEB700003C
:100A60008BE290E0FC0180818823D4F78BE290E058
:100A7000FC018081882F90E080719927892B19F0E3
:100A800086E40E94F2018BE290E0FC018081882FD5
:100A900090E088709927892B19F084E40E94F20174
:100AA0008BE290E0FC018081882F90E08470992790
:100AB000892B19F080E50E94F2018CE290E0FC01A4
:100AC0008081DF91CF910895CF93DF931F92CDB7AF
:100AD000DEB7898300008BE290E0FC018081882FE3
:100AE00090E080729927892BB1F38CE290E0298104
:100AF000FC0120830F90DF91CF910895CF93DF9376
:100B0000CDB7DEB780E290E025E0FC01208381E2F2
:100B100090E021E230E0F90120812C7FFC0120836C
:100B2000DF91CF910895CF93DF93CDB7DEB7619773
:100B30000FB6F894DEBF0FBECDBF988B8F87698B41
:100B400086E590E024EAFC012083000086E590E041
:100B5000FC0180818823D4F781E290E0FC01808150
:100B6000882F90E0887F9927089711F080E0F8C0DF
:100B700083E290E020EAFC01208386E590E024E80F
:100B8000FC012083000086E590E0FC018081882341
:100B9000D4F781E290E0FC018081882F90E0887F8B
:100BA0009927489769F683E290E02F853889232FAB
:100BB0003327FC01208386E590E024E8FC012083B4
:100BC000000086E590E0FC0180818823D4F781E273
:100BD00090E0FC018081882F90E0887F992788979A
:100BE00011F080E0BDC083E290E02F85FC012083FE
:100BF00086E590E024E8FC012083000086E590E093
:100C0000FC0180818823D4F781E290E0FC0180819F
:100C1000882F90E0887F9927889711F080E0A0C006
:100C200083E290E02989FC01208386E590E024E8B6
:100C3000FC012083000086E590E0FC018081882390
:100C4000D4F781E290E0FC018081882F90E0887FDA
:100C50009927889711F080E083C086E590E024E929
:100C6000FC012083000086E590E0FC018081882F54
:100C700090E080719927892BB1F780E090E0A0E4A3
:100C8000B1E489839A83AB83BC8320E030E04AE7F8
:100C900053E469817A818B819C810E949E0BDC01E7
:100CA000CB018D839E83AF83B88720E030E040E89E
:100CB0005FE36D817E818F8198850E947E0A882303
:100CC0002CF481E090E09A8789873FC020E03FEFD5
:100CD0004FE757E46D817E818F8198850E94990B43
:100CE00018164CF520E030E040E251E469817A8149
:100CF0008B819C810E949E0BDC01CB01BC01CD014C
:100D00000E94F50ADC01CB019A8789870FC089E12F
:100D100090E09C878B878B859C850197F1F79C875A
:100D20008B8789859A8501979A87898789859A858E
:100D3000892B69F714C06D817E818F8198850E940F
:100D4000F50ADC01CB019A87898789859A859E8778
:100D50008D878D859E850197F1F79E878D8781E030
:100D600061960FB6F894DEBF0FBECDBFDF91CF9175
:100D70000895CF93DF9300D01F92CDB7DEB79B834A
:100D80008A8386E590E024EAFC012083000086E562
:100D900090E0FC0180818823D4F781E290E0FC019F
:100DA0008081882F90E0887F9927089711F080E054
:100DB000BDC083E290E020EAFC01208386E590E05C
:100DC00024E8FC012083000086E590E0FC0180819E
:100DD0008823D4F781E290E0FC018081882F90E0A5
:100DE000887F9927489769F683E290E02A813B81C2
:100DF000232F3327FC01208386E590E024E8FC01C3
:100E00002083000086E590E0FC0180818823D4F7F0
:100E100081E290E0FC018081882F90E0887F992713
:100E2000889711F080E082C083E290E02A81FC0183
:100E3000208386E590E024E8FC012083000086E51D
:100E400090E0FC0180818823D4F781E290E0FC01EE
:100E50008081882F90E0887F9927889711F080E023
:100E600065C086E590E024EAFC012083000086E569
:100E700090E0FC0180818823D4F781E290E0FC01BE
:100E80008081882F90E0887F9927409711F080E03B
:100E90004DC083E290E021EAFC01208386E590E0EA
:100EA00024E8FC012083000086E590E0FC018081BD
:100EB0008823D4F781E290E0FC018081882F90E0C4
:100EC000887F99278034910511F080E02FC086E556
:100ED00090E024E8FC012083000086E590E0FC011E
:100EE00080818823D4F781E290E0FC018081882F03
:100EF00090E0887F99278835910511F080E016C031
:100F000083E290E0FC018081898386E590E024E91A
:100F1000FC012083000086E590E0FC018081882FA1
:100F200090E080719927892BB1F789810F900F90FC
:100F30000F90DF91CF910895CF93DF93CDB7DEB7B8
:100F400081E290E0FC01108280E290E025E0FC016B
:100F5000208386E590E024E0FC012083DF91CF919F
:100F60000895CF93DF93CDB7DEB7A0970FB6F8946F
:100F7000DEBF0FBECDBF86E590E024EAFC012083F2
:100F8000000086E590E0FC0180818823D4F780E0B2
:100F900090E0A0E2B1E489839A83AB83BC832BEA1F
:100FA0003AEA4AEA5EE369817A818B819C810E94F8
:100FB0009E0BDC01CB018D839E83AF83B88720E03D
:100FC00030E040E85EE369817A818B819C810E94F8
:100FD0009E0BDC01CB0189879A87AB87BC8720E019
:100FE00030E040E85FE36D817E818F8198850E94CB
:100FF0007E0A88231CF481E08D87B2C020E03FEF99
:101000004FE757E469857A858B859C850E94990B0B
:1010100018160CF07BC020E030E04AE754E4698108
:101020007A818B819C810E94830ADC01CB018E87AF
:101030009F87A88BB98B20E030E04AE753E46E85A8
:101040007F85888999890E949E0BDC01CB018A8B60
:101050009B8BAC8BBD8B20E030E040E85FE36A897E
:101060007B898C899D890E947E0A88232CF481E0EB
:1010700090E09F8B8E8B3FC020E03FEF4FE757E41F
:101080006A897B898C899D890E94990B18164CF579
:1010900020E030E040E251E46E857F8588899989BF
:1010A0000E949E0BDC01CB01BC01CD010E94F50A20
:1010B000DC01CB019F8B8E8B0FC089E190E0998F73
:1010C000888F888D998D0197F1F7998F888F8E89F8
:1010D0009F8901979F8B8E8B8E899F89892B69F7BA
:1010E0003FC06A897B898C899D890E94F50ADC0151
:1010F000CB019F8B8E8B8E899F899B8F8A8F8A8D48
:101100009B8D0197F1F79B8F8A8F2AC020E030E0FA
:101110004FE753E46D817E818F8198850E94990B02
:101120001816ACF469857A858B859C850E94F50A32
:10113000DC01CB019D8F8C8F8C8D9D8D9F8F8E8F31
:101140008E8D9F8D0197F1F79F8F8E8F0FC06D81D0
:101150007E818F8198850E94F50ADC01CB018D8705
:101160008D8588A388A18A95F1F788A3A0960FB6EC
:10117000F894DEBF0FBECDBFDF91CF910895CF931E
:10118000DF93CDB7DEB7A0970FB6F894DEBF0FBEE2
:10119000CDBF86E590E024E9FC01208380E090E06B
:1011A000A8ECB2E489839A83AB83BC832BEA3AEA46
:1011B0004AEA5EE369817A818B819C810E949E0B61
:1011C000DC01CB018D839E83AF83B88720E030E0C4
:1011D00040E85EE369817A818B819C810E949E0B4D
:1011E000DC01CB0189879A87AB87BC8720E030E0A0
:1011F00040E85FE36D817E818F8198850E947E0A41
:1012000088231CF481E08D87B2C020E03FEF4FE7D8
:1012100057E469857A858B859C850E94990B181601
:101220000CF07BC020E030E04AE754E469817A8129
:101230008B819C810E94830ADC01CB018E879F8772
:10124000A88BB98B20E030E04AE753E46E857F85B8
:10125000888999890E949E0BDC01CB018A8B9B8B2C
:10126000AC8BBD8B20E030E040E85FE36A897B898E
:101270008C899D890E947E0A88232CF481E090E06D
:101280009F8B8E8B3FC020E03FEF4FE757E46A898A
:101290007B898C899D890E94990B18164CF520E05A
:1012A00030E040E251E46E857F85888999890E940B
:1012B0009E0BDC01CB01BC01CD010E94F50ADC01D3
:1012C000CB019F8B8E8B0FC089E190E0998F888F27
:1012D000888D998D0197F1F7998F888F8E899F89D5
:1012E00001979F8B8E8B8E899F89892B69F73FC0D1
:1012F0006A897B898C899D890E94F50ADC01CB0172
:101300009F8B8E8B8E899F899B8F8A8F8A8D9B8DD9
:101310000197F1F79B8F8A8F2AC020E030E04FE7DA
:1013200053E46D817E818F8198850E94990B1816F8
:10133000ACF469857A858B859C850E94F50ADC0171
:10134000CB019D8F8C8F8C8D9D8D9F8F8E8F8E8DE1
:101350009F8D0197F1F79F8F8E8F0FC06D817E81DA
:101360008F8198850E94F50ADC01CB018D878D85E0
:1013700088A388A18A95F1F788A3A0960FB6F89460
:10138000DEBF0FBECDBFDF91CF910895CF93DF9326
:101390001F92CDB7DEB7898383E290E02981FC01FB
:1013A000208386E590E024E8FC012083000086E5A8
:1013B00090E0FC0180818823D4F70F90DF91CF91DA
:1013C0000895CF93DF93CDB7DEB786E590E024ECA8
:1013D000FC012083000086E590E0FC0180818823E9
:1013E000D4F783E290E0FC018081DF91CF910895F2
:1013F000CF93DF9300D0CDB7DEB789836A830E9495
:10140000B10780EA0E94C6098A810E94C6098981C3
:101410000E94C6090E94BF080F900F90DF91CF91E4
:101420000895CF93DF9300D0CDB7DEB78A830E94B3
:10143000B10780EA0E94C6098A810E94C6090E94FB
:10144000B10781EA0E94C6090E94E10989830E94CE
:10145000BF0889810F900F90DF91CF910895CF93AE
:10146000DF931F92CDB7DEB78AE390E02FEFFC0148
:10147000208387E390E027E330E0F9012081206EAC
:10148000FC01208381E390E021E330E0F901208139
:101490002E7FFC01208381E390E021E330E0F9011D
:1014A00020812260FC01208384E390E024E330E08B
:1014B000F90120812360FC0120838CE090E00E94F0
:1014C00003050E9441000E947E050E942B0589832E
:1014D00089810E9464050E94D70489810E94F201DB
:1014E00060E089810E94F80980E00E94110A8983E6
:1014F0000E94E10489810E94F201E7CF0E94240B3F
:1015000008F481E008950E94970A0C945F0B0E94F2
:10151000580B58F00E94510B40F029F45F3F29F01E
:101520000C94480B51110C94930B0C944E0B0E948D
:10153000700B68F39923B1F3552391F3951B550B69
:10154000BB27AA2762177307840738F09F5F5F4F96
:10155000220F331F441FAA1FA9F335D00E2E3AF0D5
:10156000E0E832D091505040E695001CCAF72BD0ED
:10157000FE2F29D0660F771F881FBB1F261737073E
:101580004807AB07B0E809F0BB0B802DBF01FF2770
:1015900093585F4F3AF09E3F510578F00C94480BFA
:1015A0000C94930B5F3FE4F3983ED4F386957795C4
:1015B0006795B795F7959F5FC9F7880F911D969529
:1015C000879597F90895E1E0660F771F881FBB1F85
:1015D000621773078407BA0720F0621B730B840B32
:1015E000BA0BEE1F88F7E09508950E94780B88F0FB
:1015F0009F5798F0B92F9927B751B0F0E1F0660FD7
:10160000771F881F991F1AF0BA95C9F714C0B13017
:1016100091F00E94920BB1E008950C94920B672F09
:10162000782F8827B85F39F0B93FCCF38695779546
:101630006795B395D9F73EF490958095709561952F
:101640007F4F8F4F9F4F0895990F0008550FAA0B9A
:10165000E0E8FEEF16161706E807F907C0F01216C5
:101660001306E407F50798F0621B730B840B950BC8
:1016700039F40A2661F0232B242B252B21F408951D
:101680000A2609F4A140A6958FEF811D811D0895BA
:1016900097F99F6780E870E060E008959FEF80EC25
:1016A000089500240A9416161706180609060895C8
:1016B00000240A9412161306140605060895092E2E
:1016C0000394000C11F4882352F0BB0F40F4BF2B9D
:1016D00011F460FF04C06F5F7F4F8F4F9F4F0895DD
:1016E00057FD9058440F551F59F05F3F71F04795D3
:1016F000880F97FB991F61F09F3F79F087950895B8
:10170000121613061406551FF2CF4695F1DF08C0D6
:10171000161617061806991FF1CF869571056105F3
:1017200008940895E894BB2766277727CB0197F99B
:1017300008950E94240B08F48FEF08950E94B10BC6
:101740000C945F0B0E94510B38F00E94580B20F054
:10175000952311F00C94480B0C944E0B11240C940F
:10176000930B0E94700B70F3959FC1F3950F50E09F
:10177000551F629FF001729FBB27F00DB11D639F43
:10178000AA27F00DB11DAA1F649F6627B00DA11DE9
:10179000661F829F2227B00DA11D621F739FB00D8F
:1017A000A11D621F839FA00D611D221F749F3327FF
:1017B000A00D611D231F849F600D211D822F762F98
:1017C0006A2F11249F5750409AF0F1F088234AF075
:1017D000EE0FFF1FBB1F661F771F881F91505040E1
:1017E000A9F79E3F510580F00C94480B0C94930B85
:1017F0005F3FE4F3983ED4F3869577956795B79568
:10180000F795E7959F5FC1F7FE2B880F911D969581
:10181000879597F90895FC0101900020E9F78095DC
:0C18200090958E0F9F1F0895F894FFCF45
:0C182C0048656C6C6F20576F726C640094
:00000001FF
